{
  "_format": "hh-sol-artifact-1",
  "contractName": "Heycoin",
  "sourceName": "contracts/Heycoin.sol",
  "abi": [
    {
      "inputs": [
        {
          "internalType": "address",
          "name": "org",
          "type": "address"
        },
        {
          "internalType": "string",
          "name": "uri",
          "type": "string"
        }
      ],
      "stateMutability": "nonpayable",
      "type": "constructor"
    },
    {
      "inputs": [
        {
          "internalType": "address",
          "name": "sender",
          "type": "address"
        },
        {
          "internalType": "uint256",
          "name": "balance",
          "type": "uint256"
        },
        {
          "internalType": "uint256",
          "name": "needed",
          "type": "uint256"
        },
        {
          "internalType": "uint256",
          "name": "tokenId",
          "type": "uint256"
        }
      ],
      "name": "ERC1155InsufficientBalance",
      "type": "error"
    },
    {
      "inputs": [
        {
          "internalType": "address",
          "name": "approver",
          "type": "address"
        }
      ],
      "name": "ERC1155InvalidApprover",
      "type": "error"
    },
    {
      "inputs": [
        {
          "internalType": "uint256",
          "name": "idsLength",
          "type": "uint256"
        },
        {
          "internalType": "uint256",
          "name": "valuesLength",
          "type": "uint256"
        }
      ],
      "name": "ERC1155InvalidArrayLength",
      "type": "error"
    },
    {
      "inputs": [
        {
          "internalType": "address",
          "name": "operator",
          "type": "address"
        }
      ],
      "name": "ERC1155InvalidOperator",
      "type": "error"
    },
    {
      "inputs": [
        {
          "internalType": "address",
          "name": "receiver",
          "type": "address"
        }
      ],
      "name": "ERC1155InvalidReceiver",
      "type": "error"
    },
    {
      "inputs": [
        {
          "internalType": "address",
          "name": "sender",
          "type": "address"
        }
      ],
      "name": "ERC1155InvalidSender",
      "type": "error"
    },
    {
      "inputs": [
        {
          "internalType": "address",
          "name": "operator",
          "type": "address"
        },
        {
          "internalType": "address",
          "name": "owner",
          "type": "address"
        }
      ],
      "name": "ERC1155MissingApprovalForAll",
      "type": "error"
    },
    {
      "inputs": [
        {
          "internalType": "address",
          "name": "owner",
          "type": "address"
        }
      ],
      "name": "OwnableInvalidOwner",
      "type": "error"
    },
    {
      "inputs": [
        {
          "internalType": "address",
          "name": "account",
          "type": "address"
        }
      ],
      "name": "OwnableUnauthorizedAccount",
      "type": "error"
    },
    {
      "anonymous": false,
      "inputs": [
        {
          "indexed": true,
          "internalType": "address",
          "name": "user",
          "type": "address"
        },
        {
          "indexed": true,
          "internalType": "uint256",
          "name": "tokenId",
          "type": "uint256"
        },
        {
          "indexed": false,
          "internalType": "uint256",
          "name": "amount",
          "type": "uint256"
        }
      ],
      "name": "AirdropSuccessful",
      "type": "event"
    },
    {
      "anonymous": false,
      "inputs": [
        {
          "indexed": true,
          "internalType": "address",
          "name": "account",
          "type": "address"
        },
        {
          "indexed": true,
          "internalType": "address",
          "name": "operator",
          "type": "address"
        },
        {
          "indexed": false,
          "internalType": "bool",
          "name": "approved",
          "type": "bool"
        }
      ],
      "name": "ApprovalForAll",
      "type": "event"
    },
    {
      "anonymous": false,
      "inputs": [
        {
          "indexed": true,
          "internalType": "address",
          "name": "account",
          "type": "address"
        },
        {
          "indexed": true,
          "internalType": "uint256",
          "name": "tokenId",
          "type": "uint256"
        },
        {
          "indexed": false,
          "internalType": "uint256",
          "name": "amount",
          "type": "uint256"
        }
      ],
      "name": "DiscountRedeemed",
      "type": "event"
    },
    {
      "anonymous": false,
      "inputs": [
        {
          "indexed": true,
          "internalType": "address[]",
          "name": "accounts",
          "type": "address[]"
        },
        {
          "indexed": true,
          "internalType": "uint256[]",
          "name": "tokenId",
          "type": "uint256[]"
        }
      ],
      "name": "DiscountRedeemedBatch",
      "type": "event"
    },
    {
      "anonymous": false,
      "inputs": [
        {
          "indexed": true,
          "internalType": "address",
          "name": "org",
          "type": "address"
        }
      ],
      "name": "OrgUpdated",
      "type": "event"
    },
    {
      "anonymous": false,
      "inputs": [
        {
          "indexed": true,
          "internalType": "address",
          "name": "previousOwner",
          "type": "address"
        },
        {
          "indexed": true,
          "internalType": "address",
          "name": "newOwner",
          "type": "address"
        }
      ],
      "name": "OwnershipTransferred",
      "type": "event"
    },
    {
      "anonymous": false,
      "inputs": [
        {
          "indexed": true,
          "internalType": "uint256",
          "name": "tokenID",
          "type": "uint256"
        },
        {
          "indexed": false,
          "internalType": "uint256",
          "name": "limit",
          "type": "uint256"
        }
      ],
      "name": "TokenCreated",
      "type": "event"
    },
    {
      "anonymous": false,
      "inputs": [
        {
          "indexed": true,
          "internalType": "uint256",
          "name": "tokenId",
          "type": "uint256"
        },
        {
          "indexed": false,
          "internalType": "uint256",
          "name": "newLimit",
          "type": "uint256"
        }
      ],
      "name": "TokenLimitUpdated",
      "type": "event"
    },
    {
      "anonymous": false,
      "inputs": [
        {
          "indexed": true,
          "internalType": "address",
          "name": "operator",
          "type": "address"
        },
        {
          "indexed": true,
          "internalType": "address",
          "name": "from",
          "type": "address"
        },
        {
          "indexed": true,
          "internalType": "address",
          "name": "to",
          "type": "address"
        },
        {
          "indexed": false,
          "internalType": "uint256[]",
          "name": "ids",
          "type": "uint256[]"
        },
        {
          "indexed": false,
          "internalType": "uint256[]",
          "name": "values",
          "type": "uint256[]"
        }
      ],
      "name": "TransferBatch",
      "type": "event"
    },
    {
      "anonymous": false,
      "inputs": [
        {
          "indexed": true,
          "internalType": "address",
          "name": "operator",
          "type": "address"
        },
        {
          "indexed": true,
          "internalType": "address",
          "name": "from",
          "type": "address"
        },
        {
          "indexed": true,
          "internalType": "address",
          "name": "to",
          "type": "address"
        },
        {
          "indexed": false,
          "internalType": "uint256",
          "name": "id",
          "type": "uint256"
        },
        {
          "indexed": false,
          "internalType": "uint256",
          "name": "value",
          "type": "uint256"
        }
      ],
      "name": "TransferSingle",
      "type": "event"
    },
    {
      "anonymous": false,
      "inputs": [
        {
          "indexed": false,
          "internalType": "string",
          "name": "value",
          "type": "string"
        },
        {
          "indexed": true,
          "internalType": "uint256",
          "name": "id",
          "type": "uint256"
        }
      ],
      "name": "URI",
      "type": "event"
    },
    {
      "anonymous": false,
      "inputs": [
        {
          "indexed": false,
          "internalType": "string",
          "name": "uri",
          "type": "string"
        }
      ],
      "name": "UriUpdated",
      "type": "event"
    },
    {
      "inputs": [
        {
          "internalType": "address[]",
          "name": "users",
          "type": "address[]"
        },
        {
          "internalType": "uint256",
          "name": "tokenId",
          "type": "uint256"
        },
        {
          "internalType": "uint256",
          "name": "amount",
          "type": "uint256"
        }
      ],
      "name": "airdrop",
      "outputs": [],
      "stateMutability": "nonpayable",
      "type": "function"
    },
    {
      "inputs": [
        {
          "internalType": "address",
          "name": "account",
          "type": "address"
        },
        {
          "internalType": "uint256",
          "name": "id",
          "type": "uint256"
        }
      ],
      "name": "balanceOf",
      "outputs": [
        {
          "internalType": "uint256",
          "name": "",
          "type": "uint256"
        }
      ],
      "stateMutability": "view",
      "type": "function"
    },
    {
      "inputs": [
        {
          "internalType": "address[]",
          "name": "accounts",
          "type": "address[]"
        },
        {
          "internalType": "uint256[]",
          "name": "ids",
          "type": "uint256[]"
        }
      ],
      "name": "balanceOfBatch",
      "outputs": [
        {
          "internalType": "uint256[]",
          "name": "",
          "type": "uint256[]"
        }
      ],
      "stateMutability": "view",
      "type": "function"
    },
    {
      "inputs": [
        {
          "internalType": "uint256",
          "name": "limit",
          "type": "uint256"
        }
      ],
      "name": "createToken",
      "outputs": [
        {
          "internalType": "uint256",
          "name": "",
          "type": "uint256"
        }
      ],
      "stateMutability": "nonpayable",
      "type": "function"
    },
    {
      "inputs": [
        {
          "internalType": "address",
          "name": "account",
          "type": "address"
        },
        {
          "internalType": "address",
          "name": "operator",
          "type": "address"
        }
      ],
      "name": "isApprovedForAll",
      "outputs": [
        {
          "internalType": "bool",
          "name": "",
          "type": "bool"
        }
      ],
      "stateMutability": "view",
      "type": "function"
    },
    {
      "inputs": [],
      "name": "owner",
      "outputs": [
        {
          "internalType": "address",
          "name": "",
          "type": "address"
        }
      ],
      "stateMutability": "view",
      "type": "function"
    },
    {
      "inputs": [
        {
          "internalType": "uint256",
          "name": "tokenID",
          "type": "uint256"
        },
        {
          "internalType": "uint256",
          "name": "amount",
          "type": "uint256"
        }
      ],
      "name": "redeem",
      "outputs": [],
      "stateMutability": "nonpayable",
      "type": "function"
    },
    {
      "inputs": [
        {
          "internalType": "address[]",
          "name": "addresses",
          "type": "address[]"
        },
        {
          "internalType": "uint256[]",
          "name": "tokenIDs",
          "type": "uint256[]"
        }
      ],
      "name": "redeemBatch",
      "outputs": [],
      "stateMutability": "nonpayable",
      "type": "function"
    },
    {
      "inputs": [],
      "name": "renounceOwnership",
      "outputs": [],
      "stateMutability": "nonpayable",
      "type": "function"
    },
    {
      "inputs": [
        {
          "internalType": "address",
          "name": "from",
          "type": "address"
        },
        {
          "internalType": "address",
          "name": "to",
          "type": "address"
        },
        {
          "internalType": "uint256[]",
          "name": "ids",
          "type": "uint256[]"
        },
        {
          "internalType": "uint256[]",
          "name": "values",
          "type": "uint256[]"
        },
        {
          "internalType": "bytes",
          "name": "data",
          "type": "bytes"
        }
      ],
      "name": "safeBatchTransferFrom",
      "outputs": [],
      "stateMutability": "nonpayable",
      "type": "function"
    },
    {
      "inputs": [
        {
          "internalType": "address",
          "name": "from",
          "type": "address"
        },
        {
          "internalType": "address",
          "name": "to",
          "type": "address"
        },
        {
          "internalType": "uint256",
          "name": "id",
          "type": "uint256"
        },
        {
          "internalType": "uint256",
          "name": "value",
          "type": "uint256"
        },
        {
          "internalType": "bytes",
          "name": "data",
          "type": "bytes"
        }
      ],
      "name": "safeTransferFrom",
      "outputs": [],
      "stateMutability": "nonpayable",
      "type": "function"
    },
    {
      "inputs": [
        {
          "internalType": "address",
          "name": "operator",
          "type": "address"
        },
        {
          "internalType": "bool",
          "name": "approved",
          "type": "bool"
        }
      ],
      "name": "setApprovalForAll",
      "outputs": [],
      "stateMutability": "nonpayable",
      "type": "function"
    },
    {
      "inputs": [
        {
          "internalType": "uint256",
          "name": "tokenId",
          "type": "uint256"
        }
      ],
      "name": "setTokenIdCounter",
      "outputs": [
        {
          "internalType": "uint256",
          "name": "",
          "type": "uint256"
        }
      ],
      "stateMutability": "nonpayable",
      "type": "function"
    },
    {
      "inputs": [
        {
          "internalType": "bytes4",
          "name": "interfaceId",
          "type": "bytes4"
        }
      ],
      "name": "supportsInterface",
      "outputs": [
        {
          "internalType": "bool",
          "name": "",
          "type": "bool"
        }
      ],
      "stateMutability": "view",
      "type": "function"
    },
    {
      "inputs": [
        {
          "internalType": "uint256",
          "name": "",
          "type": "uint256"
        }
      ],
      "name": "tokenAirdropLimits",
      "outputs": [
        {
          "internalType": "uint256",
          "name": "",
          "type": "uint256"
        }
      ],
      "stateMutability": "view",
      "type": "function"
    },
    {
      "inputs": [
        {
          "internalType": "uint256",
          "name": "",
          "type": "uint256"
        }
      ],
      "name": "tokenAirdroppedAmount",
      "outputs": [
        {
          "internalType": "uint256",
          "name": "",
          "type": "uint256"
        }
      ],
      "stateMutability": "view",
      "type": "function"
    },
    {
      "inputs": [],
      "name": "tokenIdCounter",
      "outputs": [
        {
          "internalType": "uint256",
          "name": "",
          "type": "uint256"
        }
      ],
      "stateMutability": "view",
      "type": "function"
    },
    {
      "inputs": [
        {
          "internalType": "uint256",
          "name": "",
          "type": "uint256"
        }
      ],
      "name": "tokenRedeemedAmount",
      "outputs": [
        {
          "internalType": "uint256",
          "name": "",
          "type": "uint256"
        }
      ],
      "stateMutability": "view",
      "type": "function"
    },
    {
      "inputs": [
        {
          "internalType": "address",
          "name": "newOwner",
          "type": "address"
        }
      ],
      "name": "transferOwnership",
      "outputs": [],
      "stateMutability": "nonpayable",
      "type": "function"
    },
    {
      "inputs": [
        {
          "internalType": "address",
          "name": "org",
          "type": "address"
        }
      ],
      "name": "updateOrg",
      "outputs": [],
      "stateMutability": "nonpayable",
      "type": "function"
    },
    {
      "inputs": [
        {
          "internalType": "uint256",
          "name": "tokenId",
          "type": "uint256"
        },
        {
          "internalType": "uint256",
          "name": "newLimit",
          "type": "uint256"
        }
      ],
      "name": "updateTokenLimit",
      "outputs": [],
      "stateMutability": "nonpayable",
      "type": "function"
    },
    {
      "inputs": [
        {
          "internalType": "string",
          "name": "uri",
          "type": "string"
        }
      ],
      "name": "updateURI",
      "outputs": [],
      "stateMutability": "nonpayable",
      "type": "function"
    },
    {
      "inputs": [
        {
          "internalType": "uint256",
          "name": "",
          "type": "uint256"
        }
      ],
      "name": "uri",
      "outputs": [
        {
          "internalType": "string",
          "name": "",
          "type": "string"
        }
      ],
      "stateMutability": "view",
      "type": "function"
    }
  ],
  "bytecode": "0x60806040523480156200001157600080fd5b50604051620041d8380380620041d8833981810160405281019062000037919062000468565b33816200004a816200019560201b60201c565b50600073ffffffffffffffffffffffffffffffffffffffff168173ffffffffffffffffffffffffffffffffffffffff1603620000c05760006040517f1e4fbdf7000000000000000000000000000000000000000000000000000000008152600401620000b79190620004df565b60405180910390fd5b620000d181620001aa60201b60201c565b50600073ffffffffffffffffffffffffffffffffffffffff168273ffffffffffffffffffffffffffffffffffffffff160362000144576040517f08c379a00000000000000000000000000000000000000000000000000000000081526004016200013b9062000583565b60405180910390fd5b600160048190555081600560006101000a81548173ffffffffffffffffffffffffffffffffffffffff021916908373ffffffffffffffffffffffffffffffffffffffff1602179055505050620008d7565b8060029081620001a69190620007f0565b5050565b6000600360009054906101000a900473ffffffffffffffffffffffffffffffffffffffff16905081600360006101000a81548173ffffffffffffffffffffffffffffffffffffffff021916908373ffffffffffffffffffffffffffffffffffffffff1602179055508173ffffffffffffffffffffffffffffffffffffffff168173ffffffffffffffffffffffffffffffffffffffff167f8be0079c531659141344cd1fd0a4f28419497f9722a3daafe3b4186f6b6457e060405160405180910390a35050565b6000604051905090565b600080fd5b600080fd5b600073ffffffffffffffffffffffffffffffffffffffff82169050919050565b6000620002b18262000284565b9050919050565b620002c381620002a4565b8114620002cf57600080fd5b50565b600081519050620002e381620002b8565b92915050565b600080fd5b600080fd5b6000601f19601f8301169050919050565b7f4e487b7100000000000000000000000000000000000000000000000000000000600052604160045260246000fd5b6200033e82620002f3565b810181811067ffffffffffffffff8211171562000360576200035f62000304565b5b80604052505050565b60006200037562000270565b905062000383828262000333565b919050565b600067ffffffffffffffff821115620003a657620003a562000304565b5b620003b182620002f3565b9050602081019050919050565b60005b83811015620003de578082015181840152602081019050620003c1565b60008484015250505050565b600062000401620003fb8462000388565b62000369565b90508281526020810184848401111562000420576200041f620002ee565b5b6200042d848285620003be565b509392505050565b600082601f8301126200044d576200044c620002e9565b5b81516200045f848260208601620003ea565b91505092915050565b600080604083850312156200048257620004816200027a565b5b60006200049285828601620002d2565b925050602083015167ffffffffffffffff811115620004b657620004b56200027f565b5b620004c48582860162000435565b9150509250929050565b620004d981620002a4565b82525050565b6000602082019050620004f66000830184620004ce565b92915050565b600082825260208201905092915050565b7f4f726720616464726573732063616e6e6f74206265207a65726f20616464726560008201527f7373000000000000000000000000000000000000000000000000000000000000602082015250565b60006200056b602283620004fc565b915062000578826200050d565b604082019050919050565b600060208201905081810360008301526200059e816200055c565b9050919050565b600081519050919050565b7f4e487b7100000000000000000000000000000000000000000000000000000000600052602260045260246000fd5b60006002820490506001821680620005f857607f821691505b6020821081036200060e576200060d620005b0565b5b50919050565b60008190508160005260206000209050919050565b60006020601f8301049050919050565b600082821b905092915050565b600060088302620006787fffffffffffffffffffffffffffffffffffffffffffffffffffffffffffffffff8262000639565b62000684868362000639565b95508019841693508086168417925050509392505050565b6000819050919050565b6000819050919050565b6000620006d1620006cb620006c5846200069c565b620006a6565b6200069c565b9050919050565b6000819050919050565b620006ed83620006b0565b62000705620006fc82620006d8565b84845462000646565b825550505050565b600090565b6200071c6200070d565b62000729818484620006e2565b505050565b5b8181101562000751576200074560008262000712565b6001810190506200072f565b5050565b601f821115620007a0576200076a8162000614565b620007758462000629565b8101602085101562000785578190505b6200079d620007948562000629565b8301826200072e565b50505b505050565b600082821c905092915050565b6000620007c560001984600802620007a5565b1980831691505092915050565b6000620007e08383620007b2565b9150826002028217905092915050565b620007fb82620005a5565b67ffffffffffffffff81111562000817576200081662000304565b5b620008238254620005df565b6200083082828562000755565b600060209050601f83116001811462000868576000841562000853578287015190505b6200085f8582620007d2565b865550620008cf565b601f198416620008788662000614565b60005b82811015620008a2578489015182556001820191506020850194506020810190506200087b565b86831015620008c25784890151620008be601f891682620007b2565b8355505b6001600288020188555050505b505050505050565b6138f180620008e76000396000f3fe608060405234801561001057600080fd5b506004361061014c5760003560e01c80637cbc2373116100c3578063c30f4a5a1161007c578063c30f4a5a146103bf578063e985e9c5146103db578063ed7e13ac1461040b578063f242432a14610427578063f2fde38b14610443578063ff9b662c1461045f5761014c565b80637cbc2373146102ff5780638da5cb5b1461031b57806398bdf6f5146103395780639f15ecb314610357578063a22cb46514610387578063a496dedf146103a35761014c565b80632d571cc4116101155780632d571cc41461022d5780632eb2c2d61461025d578063460838b4146102795780634e1273f4146102955780636123ca89146102c5578063715018a6146102f55761014c565b8062fdd58e1461015157806301ffc9a7146101815780630e58ee55146101b15780630e89341c146101e1578063182d308614610211575b600080fd5b61016b600480360381019061016691906121c8565b61048f565b6040516101789190612217565b60405180910390f35b61019b6004803603810190610196919061228a565b6104e9565b6040516101a891906122d2565b60405180910390f35b6101cb60048036038101906101c691906122ed565b6105cb565b6040516101d89190612217565b60405180910390f35b6101fb60048036038101906101f691906122ed565b6105e3565b60405161020891906123aa565b60405180910390f35b61022b60048036038101906102269190612487565b610677565b005b610247600480360381019061024291906122ed565b6107e7565b6040516102549190612217565b60405180910390f35b610277600480360381019061027291906126fb565b61092c565b005b610293600480360381019061028e91906127ca565b6109d4565b005b6102af60048036038101906102aa91906128ba565b610a63565b6040516102bc91906129f0565b60405180910390f35b6102df60048036038101906102da91906122ed565b610b72565b6040516102ec9190612217565b60405180910390f35b6102fd610b8a565b005b61031960048036038101906103149190612a12565b610b9e565b005b610323610c72565b6040516103309190612a61565b60405180910390f35b610341610c9c565b60405161034e9190612217565b60405180910390f35b610371600480360381019061036c91906122ed565b610ca2565b60405161037e9190612217565b60405180910390f35b6103a1600480360381019061039c9190612aa8565b610cba565b005b6103bd60048036038101906103b89190612ae8565b610cd0565b005b6103d960048036038101906103d49190612bf8565b610fa9565b005b6103f560048036038101906103f09190612c41565b610ff4565b60405161040291906122d2565b60405180910390f35b61042560048036038101906104209190612a12565b611088565b005b610441600480360381019061043c9190612c81565b61113a565b005b61045d600480360381019061045891906127ca565b6111e2565b005b610479600480360381019061047491906122ed565b611268565b6040516104869190612217565b60405180910390f35b600080600083815260200190815260200160002060008473ffffffffffffffffffffffffffffffffffffffff1673ffffffffffffffffffffffffffffffffffffffff16815260200190815260200160002054905092915050565b60007fd9b67a26000000000000000000000000000000000000000000000000000000007bffffffffffffffffffffffffffffffffffffffffffffffffffffffff1916827bffffffffffffffffffffffffffffffffffffffffffffffffffffffff191614806105b457507f0e89341c000000000000000000000000000000000000000000000000000000007bffffffffffffffffffffffffffffffffffffffffffffffffffffffff1916827bffffffffffffffffffffffffffffffffffffffffffffffffffffffff1916145b806105c457506105c38261127b565b5b9050919050565b60086020528060005260406000206000915090505481565b6060600280546105f290612d47565b80601f016020809104026020016040519081016040528092919081815260200182805461061e90612d47565b801561066b5780601f106106405761010080835404028352916020019161066b565b820191906000526020600020905b81548152906001019060200180831161064e57829003601f168201915b50505050509050919050565b8181905084849050146106bf576040517f08c379a00000000000000000000000000000000000000000000000000000000081526004016106b690612dea565b60405180910390fd5b60005b848490508110156107845760008585838181106106e2576106e1612e0a565b5b90506020020160208101906106f791906127ca565b9050600084848481811061070e5761070d612e0a565b5b9050602002013590506000610723838361048f565b11610763576040517f08c379a000000000000000000000000000000000000000000000000000000000815260040161075a90612eab565b60405180910390fd5b61076f828260016112e5565b5050808061077c90612efa565b9150506106c2565b508181604051610795929190612fb7565b604051809103902084846040516107ad92919061308d565b60405180910390207f7e42772a755b7c5e61e36515b9db3a5541a3ed022e31e140bd15167e0f5a004e60405160405180910390a350505050565b60006107f1610c72565b73ffffffffffffffffffffffffffffffffffffffff163373ffffffffffffffffffffffffffffffffffffffff1614806108775750600560009054906101000a900473ffffffffffffffffffffffffffffffffffffffff1673ffffffffffffffffffffffffffffffffffffffff163373ffffffffffffffffffffffffffffffffffffffff16145b6108b6576040517f08c379a00000000000000000000000000000000000000000000000000000000081526004016108ad906130f2565b60405180910390fd5b6004547f52922827b9438aa2e63a37e11aa3ae44e0536c26374251088fbc3a47589aed7b836040516108e89190612217565b60405180910390a281600660006004548152602001908152602001600020819055506004600081548092919061091d90612efa565b91905055506004549050919050565b600061093661138c565b90508073ffffffffffffffffffffffffffffffffffffffff168673ffffffffffffffffffffffffffffffffffffffff161415801561097b57506109798682610ff4565b155b156109bf5780866040517fe237d9220000000000000000000000000000000000000000000000000000000081526004016109b6929190613112565b60405180910390fd5b6109cc8686868686611394565b505050505050565b6109dc61148c565b80600560006101000a81548173ffffffffffffffffffffffffffffffffffffffff021916908373ffffffffffffffffffffffffffffffffffffffff1602179055508073ffffffffffffffffffffffffffffffffffffffff167fb867058c7ea746cd98623ca0977ed25f263280d33a0463a3b0641c8873f436ff60405160405180910390a250565b60608151835114610aaf57815183516040517f5b059991000000000000000000000000000000000000000000000000000000008152600401610aa692919061313b565b60405180910390fd5b6000835167ffffffffffffffff811115610acc57610acb612508565b5b604051908082528060200260200182016040528015610afa5781602001602082028036833780820191505090505b50905060005b8451811015610b6757610b37610b1f828761151390919063ffffffff16565b610b32838761152790919063ffffffff16565b61048f565b828281518110610b4a57610b49612e0a565b5b60200260200101818152505080610b6090612efa565b9050610b00565b508091505092915050565b60066020528060005260406000206000915090505481565b610b9261148c565b610b9c600061153b565b565b80610ba9338461048f565b1015610bea576040517f08c379a0000000000000000000000000000000000000000000000000000000008152600401610be1906131d6565b60405180910390fd5b610bf53383836112e5565b813373ffffffffffffffffffffffffffffffffffffffff167f3b9c1ff724526d9f76b30d89fbe33934482d115cec98d2a72e0786f750943bf083604051610c3c9190612217565b60405180910390a380600860008481526020019081526020016000206000828254610c6791906131f6565b925050819055505050565b6000600360009054906101000a900473ffffffffffffffffffffffffffffffffffffffff16905090565b60045481565b60076020528060005260406000206000915090505481565b610ccc610cc561138c565b8383611601565b5050565b610cd8610c72565b73ffffffffffffffffffffffffffffffffffffffff163373ffffffffffffffffffffffffffffffffffffffff161480610d5e5750600560009054906101000a900473ffffffffffffffffffffffffffffffffffffffff1673ffffffffffffffffffffffffffffffffffffffff163373ffffffffffffffffffffffffffffffffffffffff16145b610d9d576040517f08c379a0000000000000000000000000000000000000000000000000000000008152600401610d94906130f2565b60405180910390fd5b6000835111610de1576040517f08c379a0000000000000000000000000000000000000000000000000000000008152600401610dd890613276565b60405180910390fd5b808351610dee9190613296565b6007600084815260200190815260200160002054610e0c91906131f6565b60066000848152602001908152602001600020541015610e61576040517f08c379a0000000000000000000000000000000000000000000000000000000008152600401610e589061334a565b60405180910390fd5b60005b8351811015610fa3576000848281518110610e8257610e81612e0a565b5b60200260200101519050600073ffffffffffffffffffffffffffffffffffffffff168173ffffffffffffffffffffffffffffffffffffffff1603610efb576040517f08c379a0000000000000000000000000000000000000000000000000000000008152600401610ef2906133b6565b60405180910390fd5b610f1681858560405180602001604052806000815250611771565b838173ffffffffffffffffffffffffffffffffffffffff167f0e9291e452f5d581ed9971bafa675e410240898b366bdda93df99ccf594a273f85604051610f5d9190612217565b60405180910390a382600760008681526020019081526020016000206000828254610f8891906131f6565b92505081905550508080610f9b90612efa565b915050610e64565b50505050565b610fb161148c565b610fba8161180a565b7f4405f9f72187d24d444b6d55ef67bfb2ef76aacbc07d6d642a5763dd5fd77cbf81604051610fe991906123aa565b60405180910390a150565b6000600160008473ffffffffffffffffffffffffffffffffffffffff1673ffffffffffffffffffffffffffffffffffffffff16815260200190815260200160002060008373ffffffffffffffffffffffffffffffffffffffff1673ffffffffffffffffffffffffffffffffffffffff16815260200190815260200160002060009054906101000a900460ff16905092915050565b61109061148c565b60076000838152602001908152602001600020548110156110e6576040517f08c379a00000000000000000000000000000000000000000000000000000000081526004016110dd90613448565b60405180910390fd5b806006600084815260200190815260200160002081905550817fba35cff297248b3531560da63eb3bd9d6008bd934cd2ea8487b8b82e075a9b3d8260405161112e9190612217565b60405180910390a25050565b600061114461138c565b90508073ffffffffffffffffffffffffffffffffffffffff168673ffffffffffffffffffffffffffffffffffffffff161415801561118957506111878682610ff4565b155b156111cd5780866040517fe237d9220000000000000000000000000000000000000000000000000000000081526004016111c4929190613112565b60405180910390fd5b6111da868686868661181d565b505050505050565b6111ea61148c565b600073ffffffffffffffffffffffffffffffffffffffff168173ffffffffffffffffffffffffffffffffffffffff160361125c5760006040517f1e4fbdf70000000000000000000000000000000000000000000000000000000081526004016112539190612a61565b60405180910390fd5b6112658161153b565b50565b6000816004819055506004549050919050565b60007f01ffc9a7000000000000000000000000000000000000000000000000000000007bffffffffffffffffffffffffffffffffffffffffffffffffffffffff1916827bffffffffffffffffffffffffffffffffffffffffffffffffffffffff1916149050919050565b600073ffffffffffffffffffffffffffffffffffffffff168373ffffffffffffffffffffffffffffffffffffffff16036113575760006040517f01a8351400000000000000000000000000000000000000000000000000000000815260040161134e9190612a61565b60405180910390fd5b6000806113648484611928565b91509150611385856000848460405180602001604052806000815250611958565b5050505050565b600033905090565b600073ffffffffffffffffffffffffffffffffffffffff168473ffffffffffffffffffffffffffffffffffffffff16036114065760006040517f57f447ce0000000000000000000000000000000000000000000000000000000081526004016113fd9190612a61565b60405180910390fd5b600073ffffffffffffffffffffffffffffffffffffffff168573ffffffffffffffffffffffffffffffffffffffff16036114785760006040517f01a8351400000000000000000000000000000000000000000000000000000000815260040161146f9190612a61565b60405180910390fd5b6114858585858585611958565b5050505050565b61149461138c565b73ffffffffffffffffffffffffffffffffffffffff166114b2610c72565b73ffffffffffffffffffffffffffffffffffffffff1614611511576114d561138c565b6040517f118cdaa70000000000000000000000000000000000000000000000000000000081526004016115089190612a61565b60405180910390fd5b565b600060208202602084010151905092915050565b600060208202602084010151905092915050565b6000600360009054906101000a900473ffffffffffffffffffffffffffffffffffffffff16905081600360006101000a81548173ffffffffffffffffffffffffffffffffffffffff021916908373ffffffffffffffffffffffffffffffffffffffff1602179055508173ffffffffffffffffffffffffffffffffffffffff168173ffffffffffffffffffffffffffffffffffffffff167f8be0079c531659141344cd1fd0a4f28419497f9722a3daafe3b4186f6b6457e060405160405180910390a35050565b600073ffffffffffffffffffffffffffffffffffffffff168273ffffffffffffffffffffffffffffffffffffffff16036116735760006040517fced3e10000000000000000000000000000000000000000000000000000000000815260040161166a9190612a61565b60405180910390fd5b80600160008573ffffffffffffffffffffffffffffffffffffffff1673ffffffffffffffffffffffffffffffffffffffff16815260200190815260200160002060008473ffffffffffffffffffffffffffffffffffffffff1673ffffffffffffffffffffffffffffffffffffffff16815260200190815260200160002060006101000a81548160ff0219169083151502179055508173ffffffffffffffffffffffffffffffffffffffff168373ffffffffffffffffffffffffffffffffffffffff167f17307eab39ab6107e8899845ad3d59bd9653f200f220920489ca2b5937696c318360405161176491906122d2565b60405180910390a3505050565b600073ffffffffffffffffffffffffffffffffffffffff168473ffffffffffffffffffffffffffffffffffffffff16036117e35760006040517f57f447ce0000000000000000000000000000000000000000000000000000000081526004016117da9190612a61565b60405180910390fd5b6000806117f08585611928565b91509150611802600087848487611958565b505050505050565b80600290816118199190613614565b5050565b600073ffffffffffffffffffffffffffffffffffffffff168473ffffffffffffffffffffffffffffffffffffffff160361188f5760006040517f57f447ce0000000000000000000000000000000000000000000000000000000081526004016118869190612a61565b60405180910390fd5b600073ffffffffffffffffffffffffffffffffffffffff168573ffffffffffffffffffffffffffffffffffffffff16036119015760006040517f01a835140000000000000000000000000000000000000000000000000000000081526004016118f89190612a61565b60405180910390fd5b60008061190e8585611928565b9150915061191f8787848487611958565b50505050505050565b60608060405191506001825283602083015260408201905060018152826020820152604081016040529250929050565b61196485858585611a0a565b600073ffffffffffffffffffffffffffffffffffffffff168473ffffffffffffffffffffffffffffffffffffffff1614611a035760006119a261138c565b905060018451036119f25760006119c360008661152790919063ffffffff16565b905060006119db60008661152790919063ffffffff16565b90506119eb838989858589611db8565b5050611a01565b611a00818787878787611f6c565b5b505b5050505050565b8051825114611a5457815181516040517f5b059991000000000000000000000000000000000000000000000000000000008152600401611a4b92919061313b565b60405180910390fd5b6000611a5e61138c565b905060005b8351811015611c73576000611a81828661152790919063ffffffff16565b90506000611a98838661152790919063ffffffff16565b9050600073ffffffffffffffffffffffffffffffffffffffff168873ffffffffffffffffffffffffffffffffffffffff1614611bc557600080600084815260200190815260200160002060008a73ffffffffffffffffffffffffffffffffffffffff1673ffffffffffffffffffffffffffffffffffffffff16815260200190815260200160002054905081811015611b6d57888183856040517f03dee4c5000000000000000000000000000000000000000000000000000000008152600401611b6494939291906136e6565b60405180910390fd5b81810360008085815260200190815260200160002060008b73ffffffffffffffffffffffffffffffffffffffff1673ffffffffffffffffffffffffffffffffffffffff16815260200190815260200160002081905550505b600073ffffffffffffffffffffffffffffffffffffffff168773ffffffffffffffffffffffffffffffffffffffff1614611c60578060008084815260200190815260200160002060008973ffffffffffffffffffffffffffffffffffffffff1673ffffffffffffffffffffffffffffffffffffffff1681526020019081526020016000206000828254611c5891906131f6565b925050819055505b505080611c6c90612efa565b9050611a63565b506001835103611d32576000611c9360008561152790919063ffffffff16565b90506000611cab60008561152790919063ffffffff16565b90508573ffffffffffffffffffffffffffffffffffffffff168773ffffffffffffffffffffffffffffffffffffffff168473ffffffffffffffffffffffffffffffffffffffff167fc3d58168c5ae7397731d063d5bbf3d657854427343f4c083240f7aacaa2d0f628585604051611d2392919061313b565b60405180910390a45050611db1565b8373ffffffffffffffffffffffffffffffffffffffff168573ffffffffffffffffffffffffffffffffffffffff168273ffffffffffffffffffffffffffffffffffffffff167f4a39dc06d4c0dbc64b70af90fd698a233a518aa5d07e595d983b8c0526c8f7fb8686604051611da892919061372b565b60405180910390a45b5050505050565b60008473ffffffffffffffffffffffffffffffffffffffff163b1115611f64578373ffffffffffffffffffffffffffffffffffffffff1663f23a6e6187878686866040518663ffffffff1660e01b8152600401611e199594939291906137b7565b6020604051808303816000875af1925050508015611e5557506040513d601f19601f82011682018060405250810190611e529190613826565b60015b611ed9573d8060008114611e85576040519150601f19603f3d011682016040523d82523d6000602084013e611e8a565b606091505b506000815103611ed157846040517f57f447ce000000000000000000000000000000000000000000000000000000008152600401611ec89190612a61565b60405180910390fd5b805181602001fd5b63f23a6e6160e01b7bffffffffffffffffffffffffffffffffffffffffffffffffffffffff1916817bffffffffffffffffffffffffffffffffffffffffffffffffffffffff191614611f6257846040517f57f447ce000000000000000000000000000000000000000000000000000000008152600401611f599190612a61565b60405180910390fd5b505b505050505050565b60008473ffffffffffffffffffffffffffffffffffffffff163b1115612118578373ffffffffffffffffffffffffffffffffffffffff1663bc197c8187878686866040518663ffffffff1660e01b8152600401611fcd959493929190613853565b6020604051808303816000875af192505050801561200957506040513d601f19601f820116820180604052508101906120069190613826565b60015b61208d573d8060008114612039576040519150601f19603f3d011682016040523d82523d6000602084013e61203e565b606091505b50600081510361208557846040517f57f447ce00000000000000000000000000000000000000000000000000000000815260040161207c9190612a61565b60405180910390fd5b805181602001fd5b63bc197c8160e01b7bffffffffffffffffffffffffffffffffffffffffffffffffffffffff1916817bffffffffffffffffffffffffffffffffffffffffffffffffffffffff19161461211657846040517f57f447ce00000000000000000000000000000000000000000000000000000000815260040161210d9190612a61565b60405180910390fd5b505b505050505050565b6000604051905090565b600080fd5b600080fd5b600073ffffffffffffffffffffffffffffffffffffffff82169050919050565b600061215f82612134565b9050919050565b61216f81612154565b811461217a57600080fd5b50565b60008135905061218c81612166565b92915050565b6000819050919050565b6121a581612192565b81146121b057600080fd5b50565b6000813590506121c28161219c565b92915050565b600080604083850312156121df576121de61212a565b5b60006121ed8582860161217d565b92505060206121fe858286016121b3565b9150509250929050565b61221181612192565b82525050565b600060208201905061222c6000830184612208565b92915050565b60007fffffffff0000000000000000000000000000000000000000000000000000000082169050919050565b61226781612232565b811461227257600080fd5b50565b6000813590506122848161225e565b92915050565b6000602082840312156122a05761229f61212a565b5b60006122ae84828501612275565b91505092915050565b60008115159050919050565b6122cc816122b7565b82525050565b60006020820190506122e760008301846122c3565b92915050565b6000602082840312156123035761230261212a565b5b6000612311848285016121b3565b91505092915050565b600081519050919050565b600082825260208201905092915050565b60005b83811015612354578082015181840152602081019050612339565b60008484015250505050565b6000601f19601f8301169050919050565b600061237c8261231a565b6123868185612325565b9350612396818560208601612336565b61239f81612360565b840191505092915050565b600060208201905081810360008301526123c48184612371565b905092915050565b600080fd5b600080fd5b600080fd5b60008083601f8401126123f1576123f06123cc565b5b8235905067ffffffffffffffff81111561240e5761240d6123d1565b5b60208301915083602082028301111561242a576124296123d6565b5b9250929050565b60008083601f840112612447576124466123cc565b5b8235905067ffffffffffffffff811115612464576124636123d1565b5b6020830191508360208202830111156124805761247f6123d6565b5b9250929050565b600080600080604085870312156124a1576124a061212a565b5b600085013567ffffffffffffffff8111156124bf576124be61212f565b5b6124cb878288016123db565b9450945050602085013567ffffffffffffffff8111156124ee576124ed61212f565b5b6124fa87828801612431565b925092505092959194509250565b7f4e487b7100000000000000000000000000000000000000000000000000000000600052604160045260246000fd5b61254082612360565b810181811067ffffffffffffffff8211171561255f5761255e612508565b5b80604052505050565b6000612572612120565b905061257e8282612537565b919050565b600067ffffffffffffffff82111561259e5761259d612508565b5b602082029050602081019050919050565b60006125c26125bd84612583565b612568565b905080838252602082019050602084028301858111156125e5576125e46123d6565b5b835b8181101561260e57806125fa88826121b3565b8452602084019350506020810190506125e7565b5050509392505050565b600082601f83011261262d5761262c6123cc565b5b813561263d8482602086016125af565b91505092915050565b600080fd5b600067ffffffffffffffff82111561266657612665612508565b5b61266f82612360565b9050602081019050919050565b82818337600083830152505050565b600061269e6126998461264b565b612568565b9050828152602081018484840111156126ba576126b9612646565b5b6126c584828561267c565b509392505050565b600082601f8301126126e2576126e16123cc565b5b81356126f284826020860161268b565b91505092915050565b600080600080600060a086880312156127175761271661212a565b5b60006127258882890161217d565b95505060206127368882890161217d565b945050604086013567ffffffffffffffff8111156127575761275661212f565b5b61276388828901612618565b935050606086013567ffffffffffffffff8111156127845761278361212f565b5b61279088828901612618565b925050608086013567ffffffffffffffff8111156127b1576127b061212f565b5b6127bd888289016126cd565b9150509295509295909350565b6000602082840312156127e0576127df61212a565b5b60006127ee8482850161217d565b91505092915050565b600067ffffffffffffffff82111561281257612811612508565b5b602082029050602081019050919050565b6000612836612831846127f7565b612568565b90508083825260208201905060208402830185811115612859576128586123d6565b5b835b81811015612882578061286e888261217d565b84526020840193505060208101905061285b565b5050509392505050565b600082601f8301126128a1576128a06123cc565b5b81356128b1848260208601612823565b91505092915050565b600080604083850312156128d1576128d061212a565b5b600083013567ffffffffffffffff8111156128ef576128ee61212f565b5b6128fb8582860161288c565b925050602083013567ffffffffffffffff81111561291c5761291b61212f565b5b61292885828601612618565b9150509250929050565b600081519050919050565b600082825260208201905092915050565b6000819050602082019050919050565b61296781612192565b82525050565b6000612979838361295e565b60208301905092915050565b6000602082019050919050565b600061299d82612932565b6129a7818561293d565b93506129b28361294e565b8060005b838110156129e35781516129ca888261296d565b97506129d583612985565b9250506001810190506129b6565b5085935050505092915050565b60006020820190508181036000830152612a0a8184612992565b905092915050565b60008060408385031215612a2957612a2861212a565b5b6000612a37858286016121b3565b9250506020612a48858286016121b3565b9150509250929050565b612a5b81612154565b82525050565b6000602082019050612a766000830184612a52565b92915050565b612a85816122b7565b8114612a9057600080fd5b50565b600081359050612aa281612a7c565b92915050565b60008060408385031215612abf57612abe61212a565b5b6000612acd8582860161217d565b9250506020612ade85828601612a93565b9150509250929050565b600080600060608486031215612b0157612b0061212a565b5b600084013567ffffffffffffffff811115612b1f57612b1e61212f565b5b612b2b8682870161288c565b9350506020612b3c868287016121b3565b9250506040612b4d868287016121b3565b9150509250925092565b600067ffffffffffffffff821115612b7257612b71612508565b5b612b7b82612360565b9050602081019050919050565b6000612b9b612b9684612b57565b612568565b905082815260208101848484011115612bb757612bb6612646565b5b612bc284828561267c565b509392505050565b600082601f830112612bdf57612bde6123cc565b5b8135612bef848260208601612b88565b91505092915050565b600060208284031215612c0e57612c0d61212a565b5b600082013567ffffffffffffffff811115612c2c57612c2b61212f565b5b612c3884828501612bca565b91505092915050565b60008060408385031215612c5857612c5761212a565b5b6000612c668582860161217d565b9250506020612c778582860161217d565b9150509250929050565b600080600080600060a08688031215612c9d57612c9c61212a565b5b6000612cab8882890161217d565b9550506020612cbc8882890161217d565b9450506040612ccd888289016121b3565b9350506060612cde888289016121b3565b925050608086013567ffffffffffffffff811115612cff57612cfe61212f565b5b612d0b888289016126cd565b9150509295509295909350565b7f4e487b7100000000000000000000000000000000000000000000000000000000600052602260045260246000fd5b60006002820490506001821680612d5f57607f821691505b602082108103612d7257612d71612d18565b5b50919050565b7f41646472657373657320616e6420746f6b656e494473206c656e677468206d6960008201527f736d617463680000000000000000000000000000000000000000000000000000602082015250565b6000612dd4602683612325565b9150612ddf82612d78565b604082019050919050565b60006020820190508181036000830152612e0381612dc7565b9050919050565b7f4e487b7100000000000000000000000000000000000000000000000000000000600052603260045260246000fd5b7f5573657220646f6573206e6f74206861766520746f6b656e73206f662074686560008201527f20676976656e20746f6b656e4944000000000000000000000000000000000000602082015250565b6000612e95602e83612325565b9150612ea082612e39565b604082019050919050565b60006020820190508181036000830152612ec481612e88565b9050919050565b7f4e487b7100000000000000000000000000000000000000000000000000000000600052601160045260246000fd5b6000612f0582612192565b91507fffffffffffffffffffffffffffffffffffffffffffffffffffffffffffffffff8203612f3757612f36612ecb565b5b600182019050919050565b600081905092915050565b600080fd5b82818337505050565b6000612f678385612f42565b93507f07ffffffffffffffffffffffffffffffffffffffffffffffffffffffffffffff831115612f9a57612f99612f4d565b5b602083029250612fab838584612f52565b82840190509392505050565b6000612fc4828486612f5b565b91508190509392505050565b600081905092915050565b6000819050919050565b612fee81612154565b82525050565b60006130008383612fe5565b60208301905092915050565b600061301b602084018461217d565b905092915050565b6000602082019050919050565b600061303c8385612fd0565b935061304782612fdb565b8060005b858110156130805761305d828461300c565b6130678882612ff4565b975061307283613023565b92505060018101905061304b565b5085925050509392505050565b600061309a828486613030565b91508190509392505050565b7f43616c6c6572206973206e6f7420617574686f72697a65640000000000000000600082015250565b60006130dc601883612325565b91506130e7826130a6565b602082019050919050565b6000602082019050818103600083015261310b816130cf565b9050919050565b60006040820190506131276000830185612a52565b6131346020830184612a52565b9392505050565b60006040820190506131506000830185612208565b61315d6020830184612208565b9392505050565b7f496e73756666696369656e7420746f6b656e7320666f7220726564656d70746960008201527f6f6e000000000000000000000000000000000000000000000000000000000000602082015250565b60006131c0602283612325565b91506131cb82613164565b604082019050919050565b600060208201905081810360008301526131ef816131b3565b9050919050565b600061320182612192565b915061320c83612192565b925082820190508082111561322457613223612ecb565b5b92915050565b7f55736572732061727261792063616e6e6f7420626520656d7074790000000000600082015250565b6000613260601b83612325565b915061326b8261322a565b602082019050919050565b6000602082019050818103600083015261328f81613253565b9050919050565b60006132a182612192565b91506132ac83612192565b92508282026132ba81612192565b915082820484148315176132d1576132d0612ecb565b5b5092915050565b7f41697264726f70206c696d697420657863656564656420666f7220746869732060008201527f746f6b656e000000000000000000000000000000000000000000000000000000602082015250565b6000613334602583612325565b915061333f826132d8565b604082019050919050565b6000602082019050818103600083015261336381613327565b9050919050565b7f43616e27742041697264726f7020546f205a65726f2041646472657373210000600082015250565b60006133a0601e83612325565b91506133ab8261336a565b602082019050919050565b600060208201905081810360008301526133cf81613393565b9050919050565b7f4e6577206c696d6974206973206c657373207468616e20616c7265616479206160008201527f697264726f7070656420616d6f756e7400000000000000000000000000000000602082015250565b6000613432603083612325565b915061343d826133d6565b604082019050919050565b6000602082019050818103600083015261346181613425565b9050919050565b60008190508160005260206000209050919050565b60006020601f8301049050919050565b600082821b905092915050565b6000600883026134ca7fffffffffffffffffffffffffffffffffffffffffffffffffffffffffffffffff8261348d565b6134d4868361348d565b95508019841693508086168417925050509392505050565b6000819050919050565b600061351161350c61350784612192565b6134ec565b612192565b9050919050565b6000819050919050565b61352b836134f6565b61353f61353782613518565b84845461349a565b825550505050565b600090565b613554613547565b61355f818484613522565b505050565b5b818110156135835761357860008261354c565b600181019050613565565b5050565b601f8211156135c85761359981613468565b6135a28461347d565b810160208510156135b1578190505b6135c56135bd8561347d565b830182613564565b50505b505050565b600082821c905092915050565b60006135eb600019846008026135cd565b1980831691505092915050565b600061360483836135da565b9150826002028217905092915050565b61361d8261231a565b67ffffffffffffffff81111561363657613635612508565b5b6136408254612d47565b61364b828285613587565b600060209050601f83116001811461367e576000841561366c578287015190505b61367685826135f8565b8655506136de565b601f19841661368c86613468565b60005b828110156136b45784890151825560018201915060208501945060208101905061368f565b868310156136d157848901516136cd601f8916826135da565b8355505b6001600288020188555050505b505050505050565b60006080820190506136fb6000830187612a52565b6137086020830186612208565b6137156040830185612208565b6137226060830184612208565b95945050505050565b600060408201905081810360008301526137458185612992565b905081810360208301526137598184612992565b90509392505050565b600081519050919050565b600082825260208201905092915050565b600061378982613762565b613793818561376d565b93506137a3818560208601612336565b6137ac81612360565b840191505092915050565b600060a0820190506137cc6000830188612a52565b6137d96020830187612a52565b6137e66040830186612208565b6137f36060830185612208565b8181036080830152613805818461377e565b90509695505050505050565b6000815190506138208161225e565b92915050565b60006020828403121561383c5761383b61212a565b5b600061384a84828501613811565b91505092915050565b600060a0820190506138686000830188612a52565b6138756020830187612a52565b81810360408301526138878186612992565b9050818103606083015261389b8185612992565b905081810360808301526138af818461377e565b9050969550505050505056fea2646970667358221220aded0585f3d5e2677045ecfeebc07bdbda9363853c32a8918c83ce0d8c480ea664736f6c63430008140033",
  "linkReferences": {},
  "deployedLinkReferences": {}
}