{
  "_format": "hh-sol-artifact-1",
  "contractName": "Heycoin",
  "sourceName": "contracts/Heycoin.sol",
  "abi": [
    {
      "inputs": [
        {
          "internalType": "address",
          "name": "org",
          "type": "address"
        },
        {
          "internalType": "string",
          "name": "uri",
          "type": "string"
        }
      ],
      "stateMutability": "nonpayable",
      "type": "constructor"
    },
    {
      "inputs": [
        {
          "internalType": "address",
          "name": "sender",
          "type": "address"
        },
        {
          "internalType": "uint256",
          "name": "balance",
          "type": "uint256"
        },
        {
          "internalType": "uint256",
          "name": "needed",
          "type": "uint256"
        },
        {
          "internalType": "uint256",
          "name": "tokenId",
          "type": "uint256"
        }
      ],
      "name": "ERC1155InsufficientBalance",
      "type": "error"
    },
    {
      "inputs": [
        {
          "internalType": "address",
          "name": "approver",
          "type": "address"
        }
      ],
      "name": "ERC1155InvalidApprover",
      "type": "error"
    },
    {
      "inputs": [
        {
          "internalType": "uint256",
          "name": "idsLength",
          "type": "uint256"
        },
        {
          "internalType": "uint256",
          "name": "valuesLength",
          "type": "uint256"
        }
      ],
      "name": "ERC1155InvalidArrayLength",
      "type": "error"
    },
    {
      "inputs": [
        {
          "internalType": "address",
          "name": "operator",
          "type": "address"
        }
      ],
      "name": "ERC1155InvalidOperator",
      "type": "error"
    },
    {
      "inputs": [
        {
          "internalType": "address",
          "name": "receiver",
          "type": "address"
        }
      ],
      "name": "ERC1155InvalidReceiver",
      "type": "error"
    },
    {
      "inputs": [
        {
          "internalType": "address",
          "name": "sender",
          "type": "address"
        }
      ],
      "name": "ERC1155InvalidSender",
      "type": "error"
    },
    {
      "inputs": [
        {
          "internalType": "address",
          "name": "operator",
          "type": "address"
        },
        {
          "internalType": "address",
          "name": "owner",
          "type": "address"
        }
      ],
      "name": "ERC1155MissingApprovalForAll",
      "type": "error"
    },
    {
      "inputs": [
        {
          "internalType": "address",
          "name": "owner",
          "type": "address"
        }
      ],
      "name": "OwnableInvalidOwner",
      "type": "error"
    },
    {
      "inputs": [
        {
          "internalType": "address",
          "name": "account",
          "type": "address"
        }
      ],
      "name": "OwnableUnauthorizedAccount",
      "type": "error"
    },
    {
      "anonymous": false,
      "inputs": [
        {
          "indexed": false,
          "internalType": "address[]",
          "name": "users",
          "type": "address[]"
        },
        {
          "indexed": true,
          "internalType": "uint256[]",
          "name": "tokenIDs",
          "type": "uint256[]"
        },
        {
          "indexed": false,
          "internalType": "uint256[]",
          "name": "amount",
          "type": "uint256[]"
        }
      ],
      "name": "AirdropSuccessful",
      "type": "event"
    },
    {
      "anonymous": false,
      "inputs": [
        {
          "indexed": true,
          "internalType": "address",
          "name": "account",
          "type": "address"
        },
        {
          "indexed": true,
          "internalType": "address",
          "name": "operator",
          "type": "address"
        },
        {
          "indexed": false,
          "internalType": "bool",
          "name": "approved",
          "type": "bool"
        }
      ],
      "name": "ApprovalForAll",
      "type": "event"
    },
    {
      "anonymous": false,
      "inputs": [
        {
          "indexed": true,
          "internalType": "address",
          "name": "account",
          "type": "address"
        },
        {
          "indexed": true,
          "internalType": "uint256",
          "name": "tokenId",
          "type": "uint256"
        }
      ],
      "name": "DiscountRedeemed",
      "type": "event"
    },
    {
      "anonymous": false,
      "inputs": [
        {
          "indexed": true,
          "internalType": "address[]",
          "name": "accounts",
          "type": "address[]"
        },
        {
          "indexed": true,
          "internalType": "uint256[]",
          "name": "tokenId",
          "type": "uint256[]"
        }
      ],
      "name": "DiscountRedeemedBatch",
      "type": "event"
    },
    {
      "anonymous": false,
      "inputs": [
        {
          "indexed": true,
          "internalType": "address",
          "name": "org",
          "type": "address"
        }
      ],
      "name": "OrgUpdated",
      "type": "event"
    },
    {
      "anonymous": false,
      "inputs": [
        {
          "indexed": true,
          "internalType": "address",
          "name": "previousOwner",
          "type": "address"
        },
        {
          "indexed": true,
          "internalType": "address",
          "name": "newOwner",
          "type": "address"
        }
      ],
      "name": "OwnershipTransferred",
      "type": "event"
    },
    {
      "anonymous": false,
      "inputs": [
        {
          "indexed": true,
          "internalType": "uint256",
          "name": "tokenID",
          "type": "uint256"
        }
      ],
      "name": "TokenCreated",
      "type": "event"
    },
    {
      "anonymous": false,
      "inputs": [
        {
          "indexed": true,
          "internalType": "address",
          "name": "operator",
          "type": "address"
        },
        {
          "indexed": true,
          "internalType": "address",
          "name": "from",
          "type": "address"
        },
        {
          "indexed": true,
          "internalType": "address",
          "name": "to",
          "type": "address"
        },
        {
          "indexed": false,
          "internalType": "uint256[]",
          "name": "ids",
          "type": "uint256[]"
        },
        {
          "indexed": false,
          "internalType": "uint256[]",
          "name": "values",
          "type": "uint256[]"
        }
      ],
      "name": "TransferBatch",
      "type": "event"
    },
    {
      "anonymous": false,
      "inputs": [
        {
          "indexed": true,
          "internalType": "address",
          "name": "operator",
          "type": "address"
        },
        {
          "indexed": true,
          "internalType": "address",
          "name": "from",
          "type": "address"
        },
        {
          "indexed": true,
          "internalType": "address",
          "name": "to",
          "type": "address"
        },
        {
          "indexed": false,
          "internalType": "uint256",
          "name": "id",
          "type": "uint256"
        },
        {
          "indexed": false,
          "internalType": "uint256",
          "name": "value",
          "type": "uint256"
        }
      ],
      "name": "TransferSingle",
      "type": "event"
    },
    {
      "anonymous": false,
      "inputs": [
        {
          "indexed": false,
          "internalType": "string",
          "name": "value",
          "type": "string"
        },
        {
          "indexed": true,
          "internalType": "uint256",
          "name": "id",
          "type": "uint256"
        }
      ],
      "name": "URI",
      "type": "event"
    },
    {
      "anonymous": false,
      "inputs": [
        {
          "indexed": false,
          "internalType": "string",
          "name": "uri",
          "type": "string"
        }
      ],
      "name": "UriUpdated",
      "type": "event"
    },
    {
      "inputs": [
        {
          "internalType": "address[]",
          "name": "users",
          "type": "address[]"
        },
        {
          "internalType": "uint256[]",
          "name": "tokenIDs",
          "type": "uint256[]"
        },
        {
          "internalType": "uint256[]",
          "name": "amounts",
          "type": "uint256[]"
        }
      ],
      "name": "airdropBatch",
      "outputs": [],
      "stateMutability": "nonpayable",
      "type": "function"
    },
    {
      "inputs": [
        {
          "internalType": "address",
          "name": "account",
          "type": "address"
        },
        {
          "internalType": "uint256",
          "name": "id",
          "type": "uint256"
        }
      ],
      "name": "balanceOf",
      "outputs": [
        {
          "internalType": "uint256",
          "name": "",
          "type": "uint256"
        }
      ],
      "stateMutability": "view",
      "type": "function"
    },
    {
      "inputs": [
        {
          "internalType": "address[]",
          "name": "accounts",
          "type": "address[]"
        },
        {
          "internalType": "uint256[]",
          "name": "ids",
          "type": "uint256[]"
        }
      ],
      "name": "balanceOfBatch",
      "outputs": [
        {
          "internalType": "uint256[]",
          "name": "",
          "type": "uint256[]"
        }
      ],
      "stateMutability": "view",
      "type": "function"
    },
    {
      "inputs": [],
      "name": "createToken",
      "outputs": [],
      "stateMutability": "nonpayable",
      "type": "function"
    },
    {
      "inputs": [
        {
          "internalType": "address",
          "name": "account",
          "type": "address"
        },
        {
          "internalType": "address",
          "name": "operator",
          "type": "address"
        }
      ],
      "name": "isApprovedForAll",
      "outputs": [
        {
          "internalType": "bool",
          "name": "",
          "type": "bool"
        }
      ],
      "stateMutability": "view",
      "type": "function"
    },
    {
      "inputs": [],
      "name": "owner",
      "outputs": [
        {
          "internalType": "address",
          "name": "",
          "type": "address"
        }
      ],
      "stateMutability": "view",
      "type": "function"
    },
    {
      "inputs": [
        {
          "internalType": "uint256",
          "name": "tokenID",
          "type": "uint256"
        }
      ],
      "name": "redeem",
      "outputs": [],
      "stateMutability": "nonpayable",
      "type": "function"
    },
    {
      "inputs": [
        {
          "internalType": "address[]",
          "name": "addresses",
          "type": "address[]"
        },
        {
          "internalType": "uint256[]",
          "name": "tokenIDs",
          "type": "uint256[]"
        }
      ],
      "name": "redeemBatch",
      "outputs": [],
      "stateMutability": "nonpayable",
      "type": "function"
    },
    {
      "inputs": [],
      "name": "renounceOwnership",
      "outputs": [],
      "stateMutability": "nonpayable",
      "type": "function"
    },
    {
      "inputs": [
        {
          "internalType": "address",
          "name": "from",
          "type": "address"
        },
        {
          "internalType": "address",
          "name": "to",
          "type": "address"
        },
        {
          "internalType": "uint256[]",
          "name": "ids",
          "type": "uint256[]"
        },
        {
          "internalType": "uint256[]",
          "name": "values",
          "type": "uint256[]"
        },
        {
          "internalType": "bytes",
          "name": "data",
          "type": "bytes"
        }
      ],
      "name": "safeBatchTransferFrom",
      "outputs": [],
      "stateMutability": "nonpayable",
      "type": "function"
    },
    {
      "inputs": [
        {
          "internalType": "address",
          "name": "from",
          "type": "address"
        },
        {
          "internalType": "address",
          "name": "to",
          "type": "address"
        },
        {
          "internalType": "uint256",
          "name": "id",
          "type": "uint256"
        },
        {
          "internalType": "uint256",
          "name": "value",
          "type": "uint256"
        },
        {
          "internalType": "bytes",
          "name": "data",
          "type": "bytes"
        }
      ],
      "name": "safeTransferFrom",
      "outputs": [],
      "stateMutability": "nonpayable",
      "type": "function"
    },
    {
      "inputs": [
        {
          "internalType": "address",
          "name": "operator",
          "type": "address"
        },
        {
          "internalType": "bool",
          "name": "approved",
          "type": "bool"
        }
      ],
      "name": "setApprovalForAll",
      "outputs": [],
      "stateMutability": "nonpayable",
      "type": "function"
    },
    {
      "inputs": [
        {
          "internalType": "bytes4",
          "name": "interfaceId",
          "type": "bytes4"
        }
      ],
      "name": "supportsInterface",
      "outputs": [
        {
          "internalType": "bool",
          "name": "",
          "type": "bool"
        }
      ],
      "stateMutability": "view",
      "type": "function"
    },
    {
      "inputs": [],
      "name": "tokenIdCounter",
      "outputs": [
        {
          "internalType": "uint256",
          "name": "",
          "type": "uint256"
        }
      ],
      "stateMutability": "view",
      "type": "function"
    },
    {
      "inputs": [
        {
          "internalType": "address",
          "name": "newOwner",
          "type": "address"
        }
      ],
      "name": "transferOwnership",
      "outputs": [],
      "stateMutability": "nonpayable",
      "type": "function"
    },
    {
      "inputs": [
        {
          "internalType": "address",
          "name": "org",
          "type": "address"
        }
      ],
      "name": "updateOrg",
      "outputs": [],
      "stateMutability": "nonpayable",
      "type": "function"
    },
    {
      "inputs": [
        {
          "internalType": "string",
          "name": "uri",
          "type": "string"
        }
      ],
      "name": "updateURI",
      "outputs": [],
      "stateMutability": "nonpayable",
      "type": "function"
    },
    {
      "inputs": [
        {
          "internalType": "uint256",
          "name": "",
          "type": "uint256"
        }
      ],
      "name": "uri",
      "outputs": [
        {
          "internalType": "string",
          "name": "",
          "type": "string"
        }
      ],
      "stateMutability": "view",
      "type": "function"
    }
  ],
  "bytecode": "0x60806040523480156200001157600080fd5b5060405162003f8438038062003f84833981810160405281019062000037919062000468565b33816200004a816200019560201b60201c565b50600073ffffffffffffffffffffffffffffffffffffffff168173ffffffffffffffffffffffffffffffffffffffff1603620000c05760006040517f1e4fbdf7000000000000000000000000000000000000000000000000000000008152600401620000b79190620004df565b60405180910390fd5b620000d181620001aa60201b60201c565b50600073ffffffffffffffffffffffffffffffffffffffff168273ffffffffffffffffffffffffffffffffffffffff160362000144576040517f08c379a00000000000000000000000000000000000000000000000000000000081526004016200013b9062000583565b60405180910390fd5b600160048190555081600560006101000a81548173ffffffffffffffffffffffffffffffffffffffff021916908373ffffffffffffffffffffffffffffffffffffffff1602179055505050620008d7565b8060029081620001a69190620007f0565b5050565b6000600360009054906101000a900473ffffffffffffffffffffffffffffffffffffffff16905081600360006101000a81548173ffffffffffffffffffffffffffffffffffffffff021916908373ffffffffffffffffffffffffffffffffffffffff1602179055508173ffffffffffffffffffffffffffffffffffffffff168173ffffffffffffffffffffffffffffffffffffffff167f8be0079c531659141344cd1fd0a4f28419497f9722a3daafe3b4186f6b6457e060405160405180910390a35050565b6000604051905090565b600080fd5b600080fd5b600073ffffffffffffffffffffffffffffffffffffffff82169050919050565b6000620002b18262000284565b9050919050565b620002c381620002a4565b8114620002cf57600080fd5b50565b600081519050620002e381620002b8565b92915050565b600080fd5b600080fd5b6000601f19601f8301169050919050565b7f4e487b7100000000000000000000000000000000000000000000000000000000600052604160045260246000fd5b6200033e82620002f3565b810181811067ffffffffffffffff8211171562000360576200035f62000304565b5b80604052505050565b60006200037562000270565b905062000383828262000333565b919050565b600067ffffffffffffffff821115620003a657620003a562000304565b5b620003b182620002f3565b9050602081019050919050565b60005b83811015620003de578082015181840152602081019050620003c1565b60008484015250505050565b600062000401620003fb8462000388565b62000369565b90508281526020810184848401111562000420576200041f620002ee565b5b6200042d848285620003be565b509392505050565b600082601f8301126200044d576200044c620002e9565b5b81516200045f848260208601620003ea565b91505092915050565b600080604083850312156200048257620004816200027a565b5b60006200049285828601620002d2565b925050602083015167ffffffffffffffff811115620004b657620004b56200027f565b5b620004c48582860162000435565b9150509250929050565b620004d981620002a4565b82525050565b6000602082019050620004f66000830184620004ce565b92915050565b600082825260208201905092915050565b7f4f726720616464726573732063616e6e6f74206265207a65726f20616464726560008201527f7373000000000000000000000000000000000000000000000000000000000000602082015250565b60006200056b602283620004fc565b915062000578826200050d565b604082019050919050565b600060208201905081810360008301526200059e816200055c565b9050919050565b600081519050919050565b7f4e487b7100000000000000000000000000000000000000000000000000000000600052602260045260246000fd5b60006002820490506001821680620005f857607f821691505b6020821081036200060e576200060d620005b0565b5b50919050565b60008190508160005260206000209050919050565b60006020601f8301049050919050565b600082821b905092915050565b600060088302620006787fffffffffffffffffffffffffffffffffffffffffffffffffffffffffffffffff8262000639565b62000684868362000639565b95508019841693508086168417925050509392505050565b6000819050919050565b6000819050919050565b6000620006d1620006cb620006c5846200069c565b620006a6565b6200069c565b9050919050565b6000819050919050565b620006ed83620006b0565b62000705620006fc82620006d8565b84845462000646565b825550505050565b600090565b6200071c6200070d565b62000729818484620006e2565b505050565b5b8181101562000751576200074560008262000712565b6001810190506200072f565b5050565b601f821115620007a0576200076a8162000614565b620007758462000629565b8101602085101562000785578190505b6200079d620007948562000629565b8301826200072e565b50505b505050565b600082821c905092915050565b6000620007c560001984600802620007a5565b1980831691505092915050565b6000620007e08383620007b2565b9150826002028217905092915050565b620007fb82620005a5565b67ffffffffffffffff81111562000817576200081662000304565b5b620008238254620005df565b6200083082828562000755565b600060209050601f83116001811462000868576000841562000853578287015190505b6200085f8582620007d2565b865550620008cf565b601f198416620008788662000614565b60005b82811015620008a2578489015182556001820191506020850194506020810190506200087b565b86831015620008c25784890151620008be601f891682620007b2565b8355505b6001600288020188555050505b505050505050565b61369d80620008e76000396000f3fe608060405234801561001057600080fd5b50600436106101155760003560e01c80638da5cb5b116100a2578063c30f4a5a11610071578063c30f4a5a146102b6578063db006a75146102d2578063e985e9c5146102ee578063f242432a1461031e578063f2fde38b1461033a57610115565b80638da5cb5b1461025457806398bdf6f5146102725780639cbf9e3614610290578063a22cb4651461029a57610115565b80632eb2c2d6116100e95780632eb2c2d6146101c65780634330e649146101e2578063460838b4146101fe5780634e1273f41461021a578063715018a61461024a57610115565b8062fdd58e1461011a57806301ffc9a71461014a5780630e89341c1461017a578063182d3086146101aa575b600080fd5b610134600480360381019061012f9190611ebf565b610356565b6040516101419190611f0e565b60405180910390f35b610164600480360381019061015f9190611f81565b6103b0565b6040516101719190611fc9565b60405180910390f35b610194600480360381019061018f9190611fe4565b610492565b6040516101a191906120a1565b60405180910390f35b6101c460048036038101906101bf919061217e565b610526565b005b6101e060048036038101906101db91906123f2565b610696565b005b6101fc60048036038101906101f79190612584565b61073e565b005b6102186004803603810190610213919061262b565b6109cb565b005b610234600480360381019061022f9190612658565b610a5a565b604051610241919061278e565b60405180910390f35b610252610b69565b005b61025c610b7d565b60405161026991906127bf565b60405180910390f35b61027a610ba7565b6040516102879190611f0e565b60405180910390f35b610298610bad565b005b6102b460048036038101906102af9190612806565b610cc3565b005b6102d060048036038101906102cb91906128e7565b610cd9565b005b6102ec60048036038101906102e79190611fe4565b610d24565b005b61030860048036038101906103039190612930565b610dc3565b6040516103159190611fc9565b60405180910390f35b61033860048036038101906103339190612970565b610e57565b005b610354600480360381019061034f919061262b565b610eff565b005b600080600083815260200190815260200160002060008473ffffffffffffffffffffffffffffffffffffffff1673ffffffffffffffffffffffffffffffffffffffff16815260200190815260200160002054905092915050565b60007fd9b67a26000000000000000000000000000000000000000000000000000000007bffffffffffffffffffffffffffffffffffffffffffffffffffffffff1916827bffffffffffffffffffffffffffffffffffffffffffffffffffffffff1916148061047b57507f0e89341c000000000000000000000000000000000000000000000000000000007bffffffffffffffffffffffffffffffffffffffffffffffffffffffff1916827bffffffffffffffffffffffffffffffffffffffffffffffffffffffff1916145b8061048b575061048a82610f85565b5b9050919050565b6060600280546104a190612a36565b80601f01602080910402602001604051908101604052809291908181526020018280546104cd90612a36565b801561051a5780601f106104ef5761010080835404028352916020019161051a565b820191906000526020600020905b8154815290600101906020018083116104fd57829003601f168201915b50505050509050919050565b81819050848490501461056e576040517f08c379a000000000000000000000000000000000000000000000000000000000815260040161056590612ad9565b60405180910390fd5b60005b8484905081101561063357600085858381811061059157610590612af9565b5b90506020020160208101906105a6919061262b565b905060008484848181106105bd576105bc612af9565b5b90506020020135905060006105d28383610356565b11610612576040517f08c379a000000000000000000000000000000000000000000000000000000000815260040161060990612b9a565b60405180910390fd5b61061e82826001610fef565b5050808061062b90612be9565b915050610571565b508181604051610644929190612ca6565b6040518091039020848460405161065c929190612d7c565b60405180910390207f7e42772a755b7c5e61e36515b9db3a5541a3ed022e31e140bd15167e0f5a004e60405160405180910390a350505050565b60006106a0611096565b90508073ffffffffffffffffffffffffffffffffffffffff168673ffffffffffffffffffffffffffffffffffffffff16141580156106e557506106e38682610dc3565b155b156107295780866040517fe237d922000000000000000000000000000000000000000000000000000000008152600401610720929190612d95565b60405180910390fd5b610736868686868661109e565b505050505050565b610746610b7d565b73ffffffffffffffffffffffffffffffffffffffff163373ffffffffffffffffffffffffffffffffffffffff1614806107cc5750600560009054906101000a900473ffffffffffffffffffffffffffffffffffffffff1673ffffffffffffffffffffffffffffffffffffffff163373ffffffffffffffffffffffffffffffffffffffff16145b61080b576040517f08c379a000000000000000000000000000000000000000000000000000000000815260040161080290612e0a565b60405180910390fd5b6000835111801561081d575060008251115b801561082a575060008151115b610869576040517f08c379a000000000000000000000000000000000000000000000000000000000815260040161086090612e76565b60405180910390fd5b81518151146108ad576040517f08c379a00000000000000000000000000000000000000000000000000000000081526004016108a490612f08565b60405180910390fd5b60005b83518110156109765760008482815181106108ce576108cd612af9565b5b60200260200101519050600073ffffffffffffffffffffffffffffffffffffffff168173ffffffffffffffffffffffffffffffffffffffff1603610947576040517f08c379a000000000000000000000000000000000000000000000000000000000815260040161093e90612f74565b60405180910390fd5b61096281858560405180602001604052806000815250611196565b50808061096e90612be9565b9150506108b0565b50816040516109859190613019565b60405180910390207fddfe9157c4c8b292b0cec13e8738b40b6e549035ee965a9cc87f16f27fd705f184836040516109be9291906130ee565b60405180910390a2505050565b6109d361121c565b80600560006101000a81548173ffffffffffffffffffffffffffffffffffffffff021916908373ffffffffffffffffffffffffffffffffffffffff1602179055508073ffffffffffffffffffffffffffffffffffffffff167fb867058c7ea746cd98623ca0977ed25f263280d33a0463a3b0641c8873f436ff60405160405180910390a250565b60608151835114610aa657815183516040517f5b059991000000000000000000000000000000000000000000000000000000008152600401610a9d929190613125565b60405180910390fd5b6000835167ffffffffffffffff811115610ac357610ac26121ff565b5b604051908082528060200260200182016040528015610af15781602001602082028036833780820191505090505b50905060005b8451811015610b5e57610b2e610b1682876112a390919063ffffffff16565b610b2983876112b790919063ffffffff16565b610356565b828281518110610b4157610b40612af9565b5b60200260200101818152505080610b5790612be9565b9050610af7565b508091505092915050565b610b7161121c565b610b7b60006112cb565b565b6000600360009054906101000a900473ffffffffffffffffffffffffffffffffffffffff16905090565b60045481565b610bb5610b7d565b73ffffffffffffffffffffffffffffffffffffffff163373ffffffffffffffffffffffffffffffffffffffff161480610c3b5750600560009054906101000a900473ffffffffffffffffffffffffffffffffffffffff1673ffffffffffffffffffffffffffffffffffffffff163373ffffffffffffffffffffffffffffffffffffffff16145b610c7a576040517f08c379a0000000000000000000000000000000000000000000000000000000008152600401610c7190612e0a565b60405180910390fd5b6004547f5871761b381266e7e47309f0821d5b396364ebb6371d878871cac5393cb93ea860405160405180910390a260046000815480929190610cbc90612be9565b9190505550565b610cd5610cce611096565b8383611391565b5050565b610ce161121c565b610cea81611501565b7f4405f9f72187d24d444b6d55ef67bfb2ef76aacbc07d6d642a5763dd5fd77cbf81604051610d1991906120a1565b60405180910390a150565b6000610d303383610356565b11610d70576040517f08c379a0000000000000000000000000000000000000000000000000000000008152600401610d67906131c0565b60405180910390fd5b610d7c33826001610fef565b803373ffffffffffffffffffffffffffffffffffffffff167f9decc919c7dfdcd8c9a7d5b6f9a803c9e3bd3099543d0d2a9b7b0d6e4d0dfe4860405160405180910390a350565b6000600160008473ffffffffffffffffffffffffffffffffffffffff1673ffffffffffffffffffffffffffffffffffffffff16815260200190815260200160002060008373ffffffffffffffffffffffffffffffffffffffff1673ffffffffffffffffffffffffffffffffffffffff16815260200190815260200160002060009054906101000a900460ff16905092915050565b6000610e61611096565b90508073ffffffffffffffffffffffffffffffffffffffff168673ffffffffffffffffffffffffffffffffffffffff1614158015610ea65750610ea48682610dc3565b155b15610eea5780866040517fe237d922000000000000000000000000000000000000000000000000000000008152600401610ee1929190612d95565b60405180910390fd5b610ef78686868686611514565b505050505050565b610f0761121c565b600073ffffffffffffffffffffffffffffffffffffffff168173ffffffffffffffffffffffffffffffffffffffff1603610f795760006040517f1e4fbdf7000000000000000000000000000000000000000000000000000000008152600401610f7091906127bf565b60405180910390fd5b610f82816112cb565b50565b60007f01ffc9a7000000000000000000000000000000000000000000000000000000007bffffffffffffffffffffffffffffffffffffffffffffffffffffffff1916827bffffffffffffffffffffffffffffffffffffffffffffffffffffffff1916149050919050565b600073ffffffffffffffffffffffffffffffffffffffff168373ffffffffffffffffffffffffffffffffffffffff16036110615760006040517f01a8351400000000000000000000000000000000000000000000000000000000815260040161105891906127bf565b60405180910390fd5b60008061106e848461161f565b9150915061108f85600084846040518060200160405280600081525061164f565b5050505050565b600033905090565b600073ffffffffffffffffffffffffffffffffffffffff168473ffffffffffffffffffffffffffffffffffffffff16036111105760006040517f57f447ce00000000000000000000000000000000000000000000000000000000815260040161110791906127bf565b60405180910390fd5b600073ffffffffffffffffffffffffffffffffffffffff168573ffffffffffffffffffffffffffffffffffffffff16036111825760006040517f01a8351400000000000000000000000000000000000000000000000000000000815260040161117991906127bf565b60405180910390fd5b61118f858585858561164f565b5050505050565b600073ffffffffffffffffffffffffffffffffffffffff168473ffffffffffffffffffffffffffffffffffffffff16036112085760006040517f57f447ce0000000000000000000000000000000000000000000000000000000081526004016111ff91906127bf565b60405180910390fd5b61121660008585858561164f565b50505050565b611224611096565b73ffffffffffffffffffffffffffffffffffffffff16611242610b7d565b73ffffffffffffffffffffffffffffffffffffffff16146112a157611265611096565b6040517f118cdaa700000000000000000000000000000000000000000000000000000000815260040161129891906127bf565b60405180910390fd5b565b600060208202602084010151905092915050565b600060208202602084010151905092915050565b6000600360009054906101000a900473ffffffffffffffffffffffffffffffffffffffff16905081600360006101000a81548173ffffffffffffffffffffffffffffffffffffffff021916908373ffffffffffffffffffffffffffffffffffffffff1602179055508173ffffffffffffffffffffffffffffffffffffffff168173ffffffffffffffffffffffffffffffffffffffff167f8be0079c531659141344cd1fd0a4f28419497f9722a3daafe3b4186f6b6457e060405160405180910390a35050565b600073ffffffffffffffffffffffffffffffffffffffff168273ffffffffffffffffffffffffffffffffffffffff16036114035760006040517fced3e1000000000000000000000000000000000000000000000000000000000081526004016113fa91906127bf565b60405180910390fd5b80600160008573ffffffffffffffffffffffffffffffffffffffff1673ffffffffffffffffffffffffffffffffffffffff16815260200190815260200160002060008473ffffffffffffffffffffffffffffffffffffffff1673ffffffffffffffffffffffffffffffffffffffff16815260200190815260200160002060006101000a81548160ff0219169083151502179055508173ffffffffffffffffffffffffffffffffffffffff168373ffffffffffffffffffffffffffffffffffffffff167f17307eab39ab6107e8899845ad3d59bd9653f200f220920489ca2b5937696c31836040516114f49190611fc9565b60405180910390a3505050565b8060029081611510919061338c565b5050565b600073ffffffffffffffffffffffffffffffffffffffff168473ffffffffffffffffffffffffffffffffffffffff16036115865760006040517f57f447ce00000000000000000000000000000000000000000000000000000000815260040161157d91906127bf565b60405180910390fd5b600073ffffffffffffffffffffffffffffffffffffffff168573ffffffffffffffffffffffffffffffffffffffff16036115f85760006040517f01a835140000000000000000000000000000000000000000000000000000000081526004016115ef91906127bf565b60405180910390fd5b600080611605858561161f565b91509150611616878784848761164f565b50505050505050565b60608060405191506001825283602083015260408201905060018152826020820152604081016040529250929050565b61165b85858585611701565b600073ffffffffffffffffffffffffffffffffffffffff168473ffffffffffffffffffffffffffffffffffffffff16146116fa576000611699611096565b905060018451036116e95760006116ba6000866112b790919063ffffffff16565b905060006116d26000866112b790919063ffffffff16565b90506116e2838989858589611aaf565b50506116f8565b6116f7818787878787611c63565b5b505b5050505050565b805182511461174b57815181516040517f5b059991000000000000000000000000000000000000000000000000000000008152600401611742929190613125565b60405180910390fd5b6000611755611096565b905060005b835181101561196a57600061177882866112b790919063ffffffff16565b9050600061178f83866112b790919063ffffffff16565b9050600073ffffffffffffffffffffffffffffffffffffffff168873ffffffffffffffffffffffffffffffffffffffff16146118bc57600080600084815260200190815260200160002060008a73ffffffffffffffffffffffffffffffffffffffff1673ffffffffffffffffffffffffffffffffffffffff1681526020019081526020016000205490508181101561186457888183856040517f03dee4c500000000000000000000000000000000000000000000000000000000815260040161185b949392919061345e565b60405180910390fd5b81810360008085815260200190815260200160002060008b73ffffffffffffffffffffffffffffffffffffffff1673ffffffffffffffffffffffffffffffffffffffff16815260200190815260200160002081905550505b600073ffffffffffffffffffffffffffffffffffffffff168773ffffffffffffffffffffffffffffffffffffffff1614611957578060008084815260200190815260200160002060008973ffffffffffffffffffffffffffffffffffffffff1673ffffffffffffffffffffffffffffffffffffffff168152602001908152602001600020600082825461194f91906134a3565b925050819055505b50508061196390612be9565b905061175a565b506001835103611a2957600061198a6000856112b790919063ffffffff16565b905060006119a26000856112b790919063ffffffff16565b90508573ffffffffffffffffffffffffffffffffffffffff168773ffffffffffffffffffffffffffffffffffffffff168473ffffffffffffffffffffffffffffffffffffffff167fc3d58168c5ae7397731d063d5bbf3d657854427343f4c083240f7aacaa2d0f628585604051611a1a929190613125565b60405180910390a45050611aa8565b8373ffffffffffffffffffffffffffffffffffffffff168573ffffffffffffffffffffffffffffffffffffffff168273ffffffffffffffffffffffffffffffffffffffff167f4a39dc06d4c0dbc64b70af90fd698a233a518aa5d07e595d983b8c0526c8f7fb8686604051611a9f9291906134d7565b60405180910390a45b5050505050565b60008473ffffffffffffffffffffffffffffffffffffffff163b1115611c5b578373ffffffffffffffffffffffffffffffffffffffff1663f23a6e6187878686866040518663ffffffff1660e01b8152600401611b10959493929190613563565b6020604051808303816000875af1925050508015611b4c57506040513d601f19601f82011682018060405250810190611b4991906135d2565b60015b611bd0573d8060008114611b7c576040519150601f19603f3d011682016040523d82523d6000602084013e611b81565b606091505b506000815103611bc857846040517f57f447ce000000000000000000000000000000000000000000000000000000008152600401611bbf91906127bf565b60405180910390fd5b805181602001fd5b63f23a6e6160e01b7bffffffffffffffffffffffffffffffffffffffffffffffffffffffff1916817bffffffffffffffffffffffffffffffffffffffffffffffffffffffff191614611c5957846040517f57f447ce000000000000000000000000000000000000000000000000000000008152600401611c5091906127bf565b60405180910390fd5b505b505050505050565b60008473ffffffffffffffffffffffffffffffffffffffff163b1115611e0f578373ffffffffffffffffffffffffffffffffffffffff1663bc197c8187878686866040518663ffffffff1660e01b8152600401611cc49594939291906135ff565b6020604051808303816000875af1925050508015611d0057506040513d601f19601f82011682018060405250810190611cfd91906135d2565b60015b611d84573d8060008114611d30576040519150601f19603f3d011682016040523d82523d6000602084013e611d35565b606091505b506000815103611d7c57846040517f57f447ce000000000000000000000000000000000000000000000000000000008152600401611d7391906127bf565b60405180910390fd5b805181602001fd5b63bc197c8160e01b7bffffffffffffffffffffffffffffffffffffffffffffffffffffffff1916817bffffffffffffffffffffffffffffffffffffffffffffffffffffffff191614611e0d57846040517f57f447ce000000000000000000000000000000000000000000000000000000008152600401611e0491906127bf565b60405180910390fd5b505b505050505050565b6000604051905090565b600080fd5b600080fd5b600073ffffffffffffffffffffffffffffffffffffffff82169050919050565b6000611e5682611e2b565b9050919050565b611e6681611e4b565b8114611e7157600080fd5b50565b600081359050611e8381611e5d565b92915050565b6000819050919050565b611e9c81611e89565b8114611ea757600080fd5b50565b600081359050611eb981611e93565b92915050565b60008060408385031215611ed657611ed5611e21565b5b6000611ee485828601611e74565b9250506020611ef585828601611eaa565b9150509250929050565b611f0881611e89565b82525050565b6000602082019050611f236000830184611eff565b92915050565b60007fffffffff0000000000000000000000000000000000000000000000000000000082169050919050565b611f5e81611f29565b8114611f6957600080fd5b50565b600081359050611f7b81611f55565b92915050565b600060208284031215611f9757611f96611e21565b5b6000611fa584828501611f6c565b91505092915050565b60008115159050919050565b611fc381611fae565b82525050565b6000602082019050611fde6000830184611fba565b92915050565b600060208284031215611ffa57611ff9611e21565b5b600061200884828501611eaa565b91505092915050565b600081519050919050565b600082825260208201905092915050565b60005b8381101561204b578082015181840152602081019050612030565b60008484015250505050565b6000601f19601f8301169050919050565b600061207382612011565b61207d818561201c565b935061208d81856020860161202d565b61209681612057565b840191505092915050565b600060208201905081810360008301526120bb8184612068565b905092915050565b600080fd5b600080fd5b600080fd5b60008083601f8401126120e8576120e76120c3565b5b8235905067ffffffffffffffff811115612105576121046120c8565b5b602083019150836020820283011115612121576121206120cd565b5b9250929050565b60008083601f84011261213e5761213d6120c3565b5b8235905067ffffffffffffffff81111561215b5761215a6120c8565b5b602083019150836020820283011115612177576121766120cd565b5b9250929050565b6000806000806040858703121561219857612197611e21565b5b600085013567ffffffffffffffff8111156121b6576121b5611e26565b5b6121c2878288016120d2565b9450945050602085013567ffffffffffffffff8111156121e5576121e4611e26565b5b6121f187828801612128565b925092505092959194509250565b7f4e487b7100000000000000000000000000000000000000000000000000000000600052604160045260246000fd5b61223782612057565b810181811067ffffffffffffffff82111715612256576122556121ff565b5b80604052505050565b6000612269611e17565b9050612275828261222e565b919050565b600067ffffffffffffffff821115612295576122946121ff565b5b602082029050602081019050919050565b60006122b96122b48461227a565b61225f565b905080838252602082019050602084028301858111156122dc576122db6120cd565b5b835b8181101561230557806122f18882611eaa565b8452602084019350506020810190506122de565b5050509392505050565b600082601f830112612324576123236120c3565b5b81356123348482602086016122a6565b91505092915050565b600080fd5b600067ffffffffffffffff82111561235d5761235c6121ff565b5b61236682612057565b9050602081019050919050565b82818337600083830152505050565b600061239561239084612342565b61225f565b9050828152602081018484840111156123b1576123b061233d565b5b6123bc848285612373565b509392505050565b600082601f8301126123d9576123d86120c3565b5b81356123e9848260208601612382565b91505092915050565b600080600080600060a0868803121561240e5761240d611e21565b5b600061241c88828901611e74565b955050602061242d88828901611e74565b945050604086013567ffffffffffffffff81111561244e5761244d611e26565b5b61245a8882890161230f565b935050606086013567ffffffffffffffff81111561247b5761247a611e26565b5b6124878882890161230f565b925050608086013567ffffffffffffffff8111156124a8576124a7611e26565b5b6124b4888289016123c4565b9150509295509295909350565b600067ffffffffffffffff8211156124dc576124db6121ff565b5b602082029050602081019050919050565b60006125006124fb846124c1565b61225f565b90508083825260208201905060208402830185811115612523576125226120cd565b5b835b8181101561254c57806125388882611e74565b845260208401935050602081019050612525565b5050509392505050565b600082601f83011261256b5761256a6120c3565b5b813561257b8482602086016124ed565b91505092915050565b60008060006060848603121561259d5761259c611e21565b5b600084013567ffffffffffffffff8111156125bb576125ba611e26565b5b6125c786828701612556565b935050602084013567ffffffffffffffff8111156125e8576125e7611e26565b5b6125f48682870161230f565b925050604084013567ffffffffffffffff81111561261557612614611e26565b5b6126218682870161230f565b9150509250925092565b60006020828403121561264157612640611e21565b5b600061264f84828501611e74565b91505092915050565b6000806040838503121561266f5761266e611e21565b5b600083013567ffffffffffffffff81111561268d5761268c611e26565b5b61269985828601612556565b925050602083013567ffffffffffffffff8111156126ba576126b9611e26565b5b6126c68582860161230f565b9150509250929050565b600081519050919050565b600082825260208201905092915050565b6000819050602082019050919050565b61270581611e89565b82525050565b600061271783836126fc565b60208301905092915050565b6000602082019050919050565b600061273b826126d0565b61274581856126db565b9350612750836126ec565b8060005b83811015612781578151612768888261270b565b975061277383612723565b925050600181019050612754565b5085935050505092915050565b600060208201905081810360008301526127a88184612730565b905092915050565b6127b981611e4b565b82525050565b60006020820190506127d460008301846127b0565b92915050565b6127e381611fae565b81146127ee57600080fd5b50565b600081359050612800816127da565b92915050565b6000806040838503121561281d5761281c611e21565b5b600061282b85828601611e74565b925050602061283c858286016127f1565b9150509250929050565b600067ffffffffffffffff821115612861576128606121ff565b5b61286a82612057565b9050602081019050919050565b600061288a61288584612846565b61225f565b9050828152602081018484840111156128a6576128a561233d565b5b6128b1848285612373565b509392505050565b600082601f8301126128ce576128cd6120c3565b5b81356128de848260208601612877565b91505092915050565b6000602082840312156128fd576128fc611e21565b5b600082013567ffffffffffffffff81111561291b5761291a611e26565b5b612927848285016128b9565b91505092915050565b6000806040838503121561294757612946611e21565b5b600061295585828601611e74565b925050602061296685828601611e74565b9150509250929050565b600080600080600060a0868803121561298c5761298b611e21565b5b600061299a88828901611e74565b95505060206129ab88828901611e74565b94505060406129bc88828901611eaa565b93505060606129cd88828901611eaa565b925050608086013567ffffffffffffffff8111156129ee576129ed611e26565b5b6129fa888289016123c4565b9150509295509295909350565b7f4e487b7100000000000000000000000000000000000000000000000000000000600052602260045260246000fd5b60006002820490506001821680612a4e57607f821691505b602082108103612a6157612a60612a07565b5b50919050565b7f41646472657373657320616e6420746f6b656e494473206c656e677468206d6960008201527f736d617463680000000000000000000000000000000000000000000000000000602082015250565b6000612ac360268361201c565b9150612ace82612a67565b604082019050919050565b60006020820190508181036000830152612af281612ab6565b9050919050565b7f4e487b7100000000000000000000000000000000000000000000000000000000600052603260045260246000fd5b7f5573657220646f6573206e6f74206861766520746f6b656e73206f662074686560008201527f20676976656e20746f6b656e4944000000000000000000000000000000000000602082015250565b6000612b84602e8361201c565b9150612b8f82612b28565b604082019050919050565b60006020820190508181036000830152612bb381612b77565b9050919050565b7f4e487b7100000000000000000000000000000000000000000000000000000000600052601160045260246000fd5b6000612bf482611e89565b91507fffffffffffffffffffffffffffffffffffffffffffffffffffffffffffffffff8203612c2657612c25612bba565b5b600182019050919050565b600081905092915050565b600080fd5b82818337505050565b6000612c568385612c31565b93507f07ffffffffffffffffffffffffffffffffffffffffffffffffffffffffffffff831115612c8957612c88612c3c565b5b602083029250612c9a838584612c41565b82840190509392505050565b6000612cb3828486612c4a565b91508190509392505050565b600081905092915050565b6000819050919050565b612cdd81611e4b565b82525050565b6000612cef8383612cd4565b60208301905092915050565b6000612d0a6020840184611e74565b905092915050565b6000602082019050919050565b6000612d2b8385612cbf565b9350612d3682612cca565b8060005b85811015612d6f57612d4c8284612cfb565b612d568882612ce3565b9750612d6183612d12565b925050600181019050612d3a565b5085925050509392505050565b6000612d89828486612d1f565b91508190509392505050565b6000604082019050612daa60008301856127b0565b612db760208301846127b0565b9392505050565b7f43616c6c6572206973206e6f7420617574686f72697a65640000000000000000600082015250565b6000612df460188361201c565b9150612dff82612dbe565b602082019050919050565b60006020820190508181036000830152612e2381612de7565b9050919050565b7f496e7075742063616e6e6f7420626520656d7074792061727261797300000000600082015250565b6000612e60601c8361201c565b9150612e6b82612e2a565b602082019050919050565b60006020820190508181036000830152612e8f81612e53565b9050919050565b7f416d6f756e747320616e6420546f6b656e494473206c656e677468206d69736d60008201527f6174636800000000000000000000000000000000000000000000000000000000602082015250565b6000612ef260248361201c565b9150612efd82612e96565b604082019050919050565b60006020820190508181036000830152612f2181612ee5565b9050919050565b7f43616e27742041697264726f7020546f205a65726f2041646472657373210000600082015250565b6000612f5e601e8361201c565b9150612f6982612f28565b602082019050919050565b60006020820190508181036000830152612f8d81612f51565b9050919050565b612f9d81611e89565b82525050565b6000612faf8383612f94565b60208301905092915050565b6000612fc6826126d0565b612fd08185612c31565b9350612fdb836126ec565b8060005b8381101561300c578151612ff38882612fa3565b9750612ffe83612723565b925050600181019050612fdf565b5085935050505092915050565b60006130258284612fbb565b915081905092915050565b600081519050919050565b600082825260208201905092915050565b6000819050602082019050919050565b61306581611e4b565b82525050565b6000613077838361305c565b60208301905092915050565b6000602082019050919050565b600061309b82613030565b6130a5818561303b565b93506130b08361304c565b8060005b838110156130e15781516130c8888261306b565b97506130d383613083565b9250506001810190506130b4565b5085935050505092915050565b600060408201905081810360008301526131088185613090565b9050818103602083015261311c8184612730565b90509392505050565b600060408201905061313a6000830185611eff565b6131476020830184611eff565b9392505050565b7f43616c6c657220646f6573206e6f74206861766520746f6b656e73206f66207460008201527f686520676976656e20746f6b656e494400000000000000000000000000000000602082015250565b60006131aa60308361201c565b91506131b58261314e565b604082019050919050565b600060208201905081810360008301526131d98161319d565b9050919050565b60008190508160005260206000209050919050565b60006020601f8301049050919050565b600082821b905092915050565b6000600883026132427fffffffffffffffffffffffffffffffffffffffffffffffffffffffffffffffff82613205565b61324c8683613205565b95508019841693508086168417925050509392505050565b6000819050919050565b600061328961328461327f84611e89565b613264565b611e89565b9050919050565b6000819050919050565b6132a38361326e565b6132b76132af82613290565b848454613212565b825550505050565b600090565b6132cc6132bf565b6132d781848461329a565b505050565b5b818110156132fb576132f06000826132c4565b6001810190506132dd565b5050565b601f82111561334057613311816131e0565b61331a846131f5565b81016020851015613329578190505b61333d613335856131f5565b8301826132dc565b50505b505050565b600082821c905092915050565b600061336360001984600802613345565b1980831691505092915050565b600061337c8383613352565b9150826002028217905092915050565b61339582612011565b67ffffffffffffffff8111156133ae576133ad6121ff565b5b6133b88254612a36565b6133c38282856132ff565b600060209050601f8311600181146133f657600084156133e4578287015190505b6133ee8582613370565b865550613456565b601f198416613404866131e0565b60005b8281101561342c57848901518255600182019150602085019450602081019050613407565b868310156134495784890151613445601f891682613352565b8355505b6001600288020188555050505b505050505050565b600060808201905061347360008301876127b0565b6134806020830186611eff565b61348d6040830185611eff565b61349a6060830184611eff565b95945050505050565b60006134ae82611e89565b91506134b983611e89565b92508282019050808211156134d1576134d0612bba565b5b92915050565b600060408201905081810360008301526134f18185612730565b905081810360208301526135058184612730565b90509392505050565b600081519050919050565b600082825260208201905092915050565b60006135358261350e565b61353f8185613519565b935061354f81856020860161202d565b61355881612057565b840191505092915050565b600060a08201905061357860008301886127b0565b61358560208301876127b0565b6135926040830186611eff565b61359f6060830185611eff565b81810360808301526135b1818461352a565b90509695505050505050565b6000815190506135cc81611f55565b92915050565b6000602082840312156135e8576135e7611e21565b5b60006135f6848285016135bd565b91505092915050565b600060a08201905061361460008301886127b0565b61362160208301876127b0565b81810360408301526136338186612730565b905081810360608301526136478185612730565b9050818103608083015261365b818461352a565b9050969550505050505056fea2646970667358221220dae4aea27f2a1b237f1cccb16dcdf7b5b973ae87b2588ff8f8d0aa5aab724c3564736f6c63430008140033",
  "linkReferences": {},
  "deployedLinkReferences": {}
}